{"result":{"hex":"01000000ef6e6f55010000000000000000000000000000000000000000000000000000000000000000ffffffff05024104016affffffff02f0ba0400000000001976a914e96d65f94dfa4535337a35327bc8a23b2f3efb9088ac00000000000000000000000000","txid":"e7b6100f7f6de00fff3b6ae920defc290b849798a3e731adba2cab8123af9da7","version":1,"time":1433366255,"locktime":0,"vin":[{"coinbase":"024104016a","sequence":4294967295}],"vout":[{"value":0.00310000,"n":0,"scriptPubKey":{"asm":"OP_DUP OP_HASH160 e96d65f94dfa4535337a35327bc8a23b2f3efb90 OP_EQUALVERIFY OP_CHECKSIG","reqSigs":1,"type":"pubkeyhash","addresses":["Gf8AuxEtpgbyCBaWcLSUhqdEw9sQ4HPsnU"]}},{"value":0.00000000,"n":1,"scriptPubKey":{"asm":"","type":"nonstandard"}}],"blockhash":"00000000a6ea63d281246958584269e31d66984879607ee53a5358887f57f36c","confirmations":920669,"time":1433366329,"blocktime":1433366329},"error":null,"id":"curltext"}
